:020000040800F2
:1000000000280020411900089D160008A3160008CA
:10001000A9160008AF160008B51600080000000079
:10002000000000000000000000000000BB160008F7
:10003000C716000800000000D3160008DF160008ED
:100040008919000889190008891900088919000808
:1000500089190008891900088919000889190008F8
:1000600089190008891900088919000889190008E8
:1000700089190008891900088919000889190008D8
:1000800089190008891900088919000889190008C8
:1000900089190008891900088919000889190008B8
:1000A00089190008891900088919000889190008A8
:1000B000ED160008891900080000000089190008E1
:1000C00089190008000000000000000089190008DC
:1000D00000000000891900088919000800000000CC
:1000E0008919000889190008891900080000000012
:1000F0000000000000000000000000000000000000
:0C01000000000000000000005FF808F1A3
:10010C0010B5054C237833B9044B13B10448AFF345
:10011C0000800123237010BD880000200000000027
:10012C00D02F000808B5034B1BB103490348AFF3AC
:10013C00008008BD000000008C000020D02F0008BB
:10014C0080B500AF134B1B68012B21D14FF47A7093
:10015C0001F00AFB104B1B68013B0F4A13600E4B5E
:10016C001B680E4A82FB03129210DB17D31A0C4A3F
:10017C001360094B1968094B83FB01239A10CB17A9
:10018C00D21A13469B0013445B00CA1A044B5A60E4
:10019C0000BF80BDD80000200000002067666666A6
:1001AC001400002080B500AF134B1B68012B21D12C
:1001BC004FF47A7001F0F2FA104B1B68013B0F4AB6
:1001CC0013600E4B1B680E4A82FB03129210DB1756
:1001DC00D31A0C4A9360094B1968094B83FB012312
:1001EC009A10CB17D21A13469B0013445B00CA1A01
:1001FC00044BDA6000BF80BDE0000020040000204A
:10020C00676666661400002080B500AF0A4B1B6859
:10021C00012B08D14FF4FA7001F0DAFA074B1B6886
:10022C000133064A1360054B1B68022B02D1034BAA
:10023C0000221A6000BF80BDE8000020A40000204E
:10024C0080B500AF002000F09FFC0346012B04D1C9
:10025C007C4B1B6801337B4A13607A4B1B68052B64
:10026C0011D1784B01221A60774B01221A60774B1F
:10027C0001221A60764B00221A60764B00221A601B
:10028C00754B00221A60754B1B68002B0ED1002099
:10029C0000F05CFE00221021714801F072FE012278
:1002AC004FF400616E4801F06CFE0FE0654B1B686B
:1002BC00184600F04BFE01221021694801F061FE46
:1002CC0000224FF40061664801F05BFE5D4B1B6839
:1002DC00013B032B00F2258201A252F823F000BF50
:1002EC002F070008FD02000889040008DD0500083E
:1002FC00012240215A4801F044FE01224FF40071C2
:10030C00574801F03EFE01228021554801F039FE8C
:10031C0001224FF48061524801F033FE514B1B68AF
:10032C00012B0CD14FF4FA7001F06CFA20214C48DF
:10033C0001F03FFE4FF48071494801F03AFE012074
:10034C0000F022FC0346012B18D1414B1B680133F2
:10035C003F4A1360444B1B68444A82FB03129211C0
:10036C00DB17D21A3A4B1B681344632B06DD3E4B4A
:10037C004FF47A721A60364B00221A603A4B1B68A3
:10038C003A4A82FB03129211DB17D21A304B1B68CC
:10039C001344374A82FB03129210DB17D31A354AE7
:1003AC001360314B1B68314A82FB03129211DB172D
:1003BC00D21A274B1B68D1182D4B83FB01239A10A3
:1003CC00CB17D21A13469B0013445B00CA1A2A4B54
:1003DC001A60224B1B68002B0FD1264B1B6818464A
:1003EC0000F03AFF002204211D4801F0CAFD012251
:1003FC0008211B4801F0C5FD0EE01F4B1B68184679
:10040C0000F02AFF01220421154801F0BAFD002258
:10041C000821134801F0B5FD022000F0B5FB03469E
:10042C00012B40F080810A4B1B684FF47A7202FB5F
:10043C0003F20D4B1B6813440B4A1360044B002250
:10044C001A6070E124000020280000202C000020FD
:10045C00A8000020AC000020B0000020A400002068
:10046C0000080140F000002008000020D34D62106D
:10047C0067666666B4000020B800002001222021C7
:10048C00AC4801F07EFD01224FF48071A94801F0C7
:10049C0078FD01228021A74801F073FD01224FF461
:1004AC008061A44801F06DFDA34B1B68012B0CD19E
:1004BC004FF4FA7001F0A6F940219E4801F079FD45
:1004CC004FF400719B4801F074FD012000F05CFBBF
:1004DC000346012B18D1994B1B680133974A1360C3
:1004EC00974B1B68974A82FB03129211DB17D21AA7
:1004FC00924B1B681344632B06DD914B4FF47A72BD
:10050C001A608E4B00221A608D4B1B688D4A82FB41
:10051C0003129211DB17D21A884B1B6813448A4AB8
:10052C0082FB03129210DB17D31A884A1360844B98
:10053C001B68844A82FB03129211DB17D21A7F4B81
:10054C001B68D118804B83FB01239A10CB17D21A4E
:10055C0013469B0013445B00CA1A7D4B1A607D4BFB
:10056C001B68002B0FD1794B1B68184600F074FEEA
:10057C00002204216F4801F004FD012208216D487E
:10058C0001F0FFFC0EE0724B1B68184600F064FE95
:10059C0001220421674801F0F4FC0022082165487F
:1005AC0001F0EFFC022000F0EFFA0346012B40F0C3
:1005BC00BC80624B1B684FF47A7202FB03F2604BF7
:1005CC001B6813445E4A13605C4B00221A60ACE05B
:1005DC0001224021574801F0D4FC01224FF4007154
:1005EC00544801F0CEFC01222021524801F0C9FCF4
:1005FC0001224FF480714F4801F0C3FC4E4B1B6835
:10060C00012B0CD14FF4FA7001F0FCF88021494811
:10061C0001F0CFFC4FF48061464801F0CAFC012088
:10062C0000F0B2FA0346012B18D14B4B1B68013377
:10063C00494A1360494B1B68424A82FB03129211D0
:10064C00DB17D21A444B1B681344632B06DD434B58
:10065C004FF47A721A60404B00221A603F4B1B68B1
:10066C00384A82FB03129211DB17D21A3A4B1B68E1
:10067C001344354A82FB03129210DB17D31A334A08
:10068C001360364B1B682F4A82FB03129211DB1747
:10069C00D21A314B1B68D1182B4B83FB01239A10B8
:1006AC00CB17D21A13469B0013445B00CA1A284B73
:1006BC001A60284B1B68002B0FD1244B1B68184663
:1006CC0000F0CAFD002204211A4801F05AFC012254
:1006DC000821184801F055FC0EE01D4B1B6818460C
:1006EC0000F0BAFD01220421124801F04AFC00225C
:1006FC000821104801F045FC022000F045FA0346A1
:10070C00012B14D1144B1B684FF47A7202FB03F2C9
:10071C00124B1B681344114A13600F4B00221A60D2
:10072C0005E000BF04E000BF02E000BF00E000BF36
:10073C0000BF80BD00080140F0000020AC0000208C
:10074C0010000020D34D621067666666B40000206E
:10075C00B8000020A4000020B00000200C000020F5
:10076C0080B500AF002000F00FFA0346012B04D136
:10077C00764B1B680133754A1360744B1B68012B55
:10078C0040F0DE80724B1B68013B032B00F2A7800C
:10079C0001A252F823F000BFB507000801080008B9
:1007AC004F0800089D08000801222021694801F02B
:1007BC00E8FB01228021674801F0E3FB0122402184
:1007CC00644801F0DEFB624B02221A60624B1B682C
:1007DC00184600F095FF4FF47A7000F0C5FF5E4BA1
:1007EC001B685E4A82FB03129211DB17D31A5C4A18
:1007FC0013607BE000222021564801F0C2FB01224D
:10080C008021544801F0BDFB01224021514801F0E8
:10081C00B8FB544B1B68012B63D1534B1B68184618
:10082C0000F06EFF504B1B684C4A82FB0312921176
:10083C00DB17D31A01334A4A1360454B03221A6063
:10084C004FE001222021434801F09BFB0022802134
:10085C00404801F096FB012240213E4801F091FBFB
:10086C00404B1B68012B3ED1404B1B68184600F0D7
:10087C0047FF3E4B1B68394A82FB03129211DB1770
:10088C00D31A0133364A1360314B04221A602AE022
:10089C00012220212F4801F074FB012280212D48D8
:1008AC0001F06FFB002240212A4801F06AFB2D4B1E
:1008BC001B68012B19D1284B1B68184600F020FF30
:1008CC00254B1B68254A82FB03129211DB17D31AA6
:1008DC000133234A13601E4B02221A6005E000BF4D
:1008EC0004E000BF02E000BF00E000BFFFF728FCFF
:1008FC00FFF78AFC1E4B1B68002B10D11D4B5B684D
:10090C00184600F023FB01221021124801F039FB9C
:10091C0000224FF400610F4801F033FB14E0154B3B
:10092C001B68184600F012FB00221021094801F048
:10093C0028FB01224FF40061064801F022FB03E082
:10094C00FFF762FCFFF77CFC00BF80BD2400002099
:10095C00280000200008014008000020D34D621040
:10096C0000000020C80000200C0000201000002017
:10097C00A40000201400002080B500AF774B1B684A
:10098C00012B40F0E980764B1B68013B032B00F2F6
:10099C00B58001A252F823F0B50900080D0A000831
:1009AC00610A0008B50A000801224FF480716D48F5
:1009BC0001F0E7FA01224FF480616A4801F0E1FA94
:1009CC0001224FF40071674801F0DBFA644B0322FB
:1009DC001A60654B1B68184600F0ACFE4FF47A7039
:1009EC0000F0DCFE604B1B68604A82FB0312921124
:1009FC00DB17D31A5E4A1360002000F0C5F884E0C0
:100A0C0000224FF48071574801F0BBFA01224FF4D9
:100A1C008061544801F0B5FA01224FF4007151483D
:100A2C0001F0AFFA534B1B68012B69D14E4B1B687D
:100A3C00184600F07FFE4C4B1B684C4A82FB03129D
:100A4C009211DB17D31A0133494A1360444B03222A
:100A5C001A6055E001224FF48071424801F091FA7E
:100A6C0000224FF480613F4801F08BFA01224FF4D1
:100A7C0000713C4801F085FA3E4B1B68012B41D1BB
:100A8C003D4B1B68184600F055FE3B4B1B68374A24
:100A9C0082FB03129211DB17D31A0133344A136011
:100AAC002F4B04221A602DE001224FF480712D4847
:100ABC0001F067FA01224FF480612A4801F061FAD3
:100ACC0000224FF40071274801F05BFA294B1B6898
:100ADC00012B19D1294B1B68184600F02BFE274B14
:100AEC001B68224A82FB03129211DB17D31A0133C3
:100AFC001F4A13601A4B02221A6005E000BF04E083
:100B0C0000BF02E000BF00E000BFFFF74BFBFFF7A8
:100B1C007BFB1B4B1B68002B0FD11A4BDB68184659
:100B2C0000F09AFB012204210E4801F02AFA00225F
:100B3C0008210C4801F025FA0EE0124B9B68184670
:100B4C0000F08AFB00220421064801F01AFA012267
:100B5C000821044801F015FA00BF80BD24000020D4
:100B6C002C000020000801400C000020D34D621026
:100B7C0004000020D00000201000002008000020FD
:100B8C00A40000201400002080B483B000AF786073
:100B9C00094A7B6852F82330012B06D1064A7B6840
:100BAC00002142F82310012300E0002318460C37E3
:100BBC00BD4680BC704700BFBC00002080B483B031
:100BCC0000AF7860044A7B68012142F8231000BF13
:100BDC000C37BD4680BC7047BC00002080B582B08D
:100BEC0000AF00237B6074E03E4A7B6852F8232000
:100BFC003D497B6841F823203C4A7B6852F823200E
:100C0C0038497B6841F82320394A7B6852F82330F5
:100C1C009BB21946374801F09DF903461946334AF1
:100C2C007B6842F82310304A7B6852F823202D4908
:100C3C007B6851F823309A4248D12A4A7B6852F893
:100C4C0023202A497B6851F823309A423ED12A4A04
:100C5C007B6852F8232025497B6851F823309A424F
:100C6C0017D0224A7B6852F8232023497B6841F82D
:100C7C0023201E4A7B6852F82330002B26D178683B
:100C8C00FFF79CFF1D4A7B684FF4967142F82310C6
:100C9C001CE01A4A7B6852F823305A1E17497B68AD
:100CAC0041F82320154A7B6852F82330002B0DD1D4
:100CBC000E4A7B6852F82330002B02D17868FFF77C
:100CCC007DFF0E4A7B68642142F823107B68013358
:100CDC007B607B68022B87DD00BF00BF0837BD46F9
:100CEC0080BD00BF480000203C00002054000020C4
:100CFC003000002000080140600000206C00002043
:100D0C0080B500AF00F03CFE00F022F800F0A8F82F
:100D1C0000F05AF8094801F091FD094B01221A60C4
:100D2C00084B01221A60084B01221A60074B012262
:100D3C001A60FFF715FDFFF71FFEFAE7F800002019
:100D4C00E8000020F0000020280000202C000020EB
:100D5C0080B590B000AF07F1180328220021184687
:100D6C0002F028F93B1D00221A605A609A60DA6082
:100D7C001A610223BB610123BB621023FB620023B7
:100D8C007B6307F11803184601F02CF90346002B7E
:100D9C0001D000F0D5F80F237B600023BB6000234B
:100DAC00FB6000233B6100237B613B1D0021184647
:100DBC0001F098FB0346002B01D000F0C1F800BFF6
:100DCC004037BD4680BD000080B586B000AF07F14E
:100DDC00080300221A605A609A60DA603B460022CF
:100DEC001A605A601D4B4FF080421A601B4B41F643
:100DFC003F725A60194B00229A60184B0922DA6034
:100E0C00164B00221A61154B00229A61134801F00F
:100E1C00C5FC0346002B01D000F092F84FF4805330
:100E2C00BB6007F1080319460C4801F05BFE034652
:100E3C00002B01D000F084F800233B6000237B6082
:100E4C003B461946054802F027F80346002B01D013
:100E5C0000F076F800BF1837BD4680BDF8000020C2
:100E6C0080B586B000AF07F1080300221A605A6003
:100E7C009A60DA60294B9B69284A43F0040393611A
:100E8C00264B9B6903F004037B607B68234B9B69B7
:100E9C00224A43F008039361204B9B6903F008033B
:100EAC003B603B68002240F6FC711D4801F069F87C
:100EBC00002243F6FF711B4801F063F840F6FC7307
:100ECC00BB600123FB6000233B6102237B6107F1C4
:100EDC0008031946124800F0C3FE43F6FF73BB60CB
:100EEC000123FB6000233B6102237B6107F10803B4
:100EFC0019460C4800F0B4FE4FF46043BB6000236D
:100F0C00FB6000233B6107F108031946044800F01D
:100F1C00A7FE00BF1837BD4680BD00BF00100240C1
:100F2C0000080140000C014080B582B000AF786031
:100F3C0000F082FCFFF752FE00BF0837BD4680BDB3
:100F4C0080B400AF72B600BFFEE7000080B582B07F
:100F5C0000AF78607B68002B22D100220121BD48B4
:100F6C0001F00FF800220221BA4801F00AF8002221
:100F7C000421B84801F005F800220821B54801F019
:100F8C0000F800221021B34800F0FBFF00222021C2
:100F9C00B04800F0F6FF01224021AE4800F0F1FF0E
:100FAC007B68012B22D101220121AA4800F0E9FF24
:100FBC0000220221A74800F0E4FF00220421A548EA
:100FCC0000F0DFFF01220821A24800F0DAFF012225
:100FDC001021A04800F0D5FF012220219D4800F0EF
:100FEC00D0FF012240219B4800F0CBFF7B68022BF5
:100FFC0022D100220121974800F0C3FF00220221D8
:10100C00944800F0BEFF01220421924800F0B9FF81
:10101C00002208218F4800F0B4FF002210218D48D7
:10102C0000F0AFFF012220218A4800F0AAFF002225
:10103C004021884800F0A5FF7B68032B22D10022B9
:10104C000121844800F09DFF00220221814800F01C
:10105C0098FF002204217F4800F093FF0022082112
:10106C007C4800F08EFF012210217A4800F089FFA5
:10107C0001222021774800F084FF0022402175488E
:10108C0000F07FFF7B68042B22D1012201217148E3
:10109C0000F077FF002202216E4800F072FF002260
:1010AC0004216C4800F06DFF01220821694800F012
:1010BC0068FF01221021674800F063FF0022202105
:1010CC00644800F05EFF00224021624800F059FFA6
:1010DC007B68052B22D1002201215E4800F051FFD4
:1010EC00012202215B4800F04CFF002204215948E8
:1010FC0000F047FF00220821564800F042FF012271
:10110C001021544800F03DFF00222021514800F0EE
:10111C0038FF002240214F4800F033FF7B68062B3C
:10112C0022D1002201214B4800F02BFF0122022189
:10113C00484800F026FF00220421464800F021FF19
:10114C0000220821434800F01CFF002210214148D6
:10115C0000F017FF002220213E4800F012FF002271
:10116C0040213C4800F00DFF7B68072B22D1002268
:10117C000121384800F005FF00220221354800F01B
:10118C0000FF00220421334800F0FBFE012208215D
:10119C00304800F0F6FE012210212E4800F0F1FE3E
:1011AC00012220212B4800F0ECFE0122402129488D
:1011BC0000F0E7FE7B68082B22D100220121254894
:1011CC0000F0DFFE00220221224800F0DAFE0022AD
:1011DC000421204800F0D5FE002208211D4800F013
:1011EC00D0FE002210211B4800F0CBFE0022202153
:1011FC00184800F0C6FE00224021164800F0C1FE3F
:10120C007B68092B22D100220121124800F0B9FE83
:10121C00002202210F4800F0B4FE002204210D48E8
:10122C0000F0AFFE002208210A4800F0AAFE0122BD
:10123C001021084800F0A5FE00222021054800F0EE
:10124C00A0FE00224021034800F09BFE00BF08379F
:10125C00BD4680BD000C014080B582B000AF786007
:10126C007B68002B28D100228021D24800F089FE17
:10127C0000224FF48071CF4800F083FE00224FF41F
:10128C000071CC4800F07DFE00224FF48061C9480B
:10129C0000F077FE00224FF40061C64800F071FEAA
:1012AC0000224FF48051C34800F06BFE01224FF432
:1012BC000051C04800F065FE7B68012B28D101224B
:1012CC008021BC4800F05DFE00224FF48071B948CB
:1012DC0000F057FE00224FF40071B64800F051FEAA
:1012EC0001224FF48061B34800F04BFE01224FF411
:1012FC000061B04800F045FE01224FF48051AD482A
:10130C0000F03FFE01224FF40051AA4800F039FED4
:10131C007B68022B28D100228021A64800F031FEE8
:10132C0000224FF48071A34800F02BFE01224FF4F1
:10133C000071A04800F025FE00224FF480619D480A
:10134C0000F01FFE00224FF400619A4800F019FED5
:10135C0001224FF48051974800F013FE00224FF405
:10136C000051944800F00DFE7B68032B28D100221D
:10137C008021904800F005FE00224FF480718D48CA
:10138C0000F0FFFD00224FF400718A4800F0F9FDD7
:10139C0000224FF48061874800F0F3FD01224FF4E6
:1013AC000061844800F0EDFD01224FF4805181482A
:1013BC0000F0E7FD00224FF400517E4800F0E1FD03
:1013CC007B68042B28D1012280217A4800F0D9FDBA
:1013DC0000224FF48071774800F0D3FD00224FF4C7
:1013EC000071744800F0CDFD01224FF4806171480A
:1013FC0000F0C7FD01224FF400616E4800F0C1FD02
:10140C0000224FF480516B4800F0BBFD00224FF4DA
:10141C000051684800F0B5FD7B68052B28D10022EF
:10142C008021644800F0ADFD01224FF480716148C9
:10143C0000F0A7FD00224FF400715E4800F0A1FD02
:10144C0000224FF480615B4800F09BFD01224FF4B9
:10145C000061584800F095FD00224FF4805155482A
:10146C0000F08FFD00224FF40051524800F089FD2E
:10147C007B68062B28D1002280214E4800F081FD8C
:10148C0001224FF480714B4800F07BFD00224FF499
:10149C000071484800F075FD00224FF4806145480A
:1014AC0000F06FFD00224FF40061424800F069FD2E
:1014BC0000224FF480513F4800F063FD00224FF4AE
:1014CC0000513C4800F05DFD7B68072B28D10022C1
:1014DC008021384800F055FD00224FF480713548CA
:1014EC0000F04FFD00224FF40071324800F049FD2E
:1014FC0001224FF480612F4800F043FD01224FF48C
:10150C0000612C4800F03DFD01224FF48051294828
:10151C0000F037FD01224FF40051264800F031FD58
:10152C007B68082B28D100228021224800F029FD5D
:10153C0000224FF480711F4800F023FD00224FF46D
:10154C0000711C4800F01DFD00224FF48061194809
:10155C0000F017FD00224FF40061164800F011FD59
:10156C0000224FF48051134800F00BFD00224FF481
:10157C000051104800F005FD7B68092B2BD100228F
:10158C0080210C4800F0FDFC00224FF480710948CA
:10159C0000F0F7FC00224FF40071064800F0F1FC5B
:1015AC0000224FF48061034800F0EBFC01224FF461
:1015BC00006101E0000C0140094800F0E2FC00224F
:1015CC004FF48051064800F0DCFC00224FF400512F
:1015DC00034800F0D6FC00BF0837BD4680BD00BFF5
:1015EC00000C014080B485B000AF154B9B69144AC8
:1015FC0043F001039361124B9B6903F00103BB6041
:10160C00BB680F4BDB690E4A43F08053D3610C4B24
:10161C00DB6903F080537B607B680A4B5B68FB6083
:10162C00FB6823F0E063FB60FB6843F08063FB60C6
:10163C00044AFB68536000BF1437BD4680BC70473A
:10164C00001002400000014080B584B000AF78600B
:10165C007B681B68B3F1804F13D10C4BDB690B4AD1
:10166C0043F00103D361094BDB6903F00103FB6019
:10167C00FB68002200211C2000F0BBFA1C2000F0AB
:10168C00D4FA00BF1037BD4680BD00BF0010024029
:10169C0080B400AFFEE780B400AFFEE780B400AFCB
:1016AC00FEE780B400AFFEE780B400AFFEE780B485
:1016BC0000AF00BFBD4680BC704780B400AF00BF18
:1016CC00BD4680BC704780B400AF00BFBD4680BC37
:1016DC00704780B500AF00F099F900BF80BD0000E5
:1016EC0080B500AF024801F0F5F800BF80BD00BF27
:1016FC00F800002080B400AF00BFBD4680BC70472E
:10170C0080B483B000AF7860074B1B687A6892FB9B
:10171C00F3F3064A1360064B00221A6000BF0C3725
:10172C00BD4680BC704700BF7C000020CC00002070
:10173C00C800002080B483B000AF7860074B1B68F2
:10174C007A6892FBF3F3064A1360064B00221A6088
:10175C0000BF0C37BD4680BC704700BF7C0000202A
:10176C00D4000020D000002080B483B000AF78609B
:10177C00074B1B687A6892FBF3F3064A1360064B1F
:10178C0000221A6000BF0C37BD4680BC704700BFFA
:10179C007C000020DC000020D800002080B483B046
:1017AC0000AF7860074B1B687A6892FBF3F3064A2C
:1017BC001360064B00221A6000BF0C37BD4680BC7C
:1017CC00704700BF7C000020E4000020E0000020F7
:1017DC0080B483B000AF7860074B1B687A6892FBCB
:1017EC00F3F3064A1360064B00221A6000BF0C3755
:1017FC00BD4680BC704700BF7C000020EC00002080
:10180C00E800002080B483B000AF7860074B1B6801
:10181C007A6892FBF3F3064A1360064B00221A60B7
:10182C0000BF0C37BD4680BC704700BF7C00002059
:10183C00F4000020F000002080B400AF314B1B6896
:10184C00002B0BDD2F4B1B68013B2E4A13602D4BDD
:10185C001B68002B02DC2C4B01221A602B4B1B68E3
:10186C00002B0BDD294B1B68013B284A1360274BCF
:10187C001B68002B02DC264B01221A60254B1B68CF
:10188C00002B0BDD234B1B68013B224A1360214BC1
:10189C001B68002B02DC204B01221A601F4B1B68BB
:1018AC00002B0BDD1D4B1B68013B1C4A13601B4BB3
:1018BC001B68002B02DC1A4B01221A60194B1B68A7
:1018CC00002B0BDD174B1B68013B164A1360154BA5
:1018DC001B68002B02DC144B01221A60134B1B6893
:1018EC00002B0BDD114B1B68013B104A13600F4B97
:1018FC001B68002B02DC0E4B01221A6000BFBD4698
:10190C0080BC7047CC000020C8000020D400002010
:10191C00D0000020DC000020D8000020E4000020D3
:10192C00E0000020EC000020E8000020F400002083
:10193C00F0000020FFF7DEFE0B480C490C4A002398
:10194C0002E0D458C4500433C4188C42F9D3094A69
:10195C00094C002301E013600432A242FBD301F0D6
:10196C0005FBFFF7CDF97047000000208800002030
:10197C00143000088800002044010020FEE700001D
:10198C0080B500AF084B1B68074A43F01003136087
:10199C00032000F023F90F2000F008F8FFF722FED7
:1019AC000023184680BD00BF0020024080B582B0E5
:1019BC0000AF7860124B1A68124B1B7819464FF423
:1019CC007A73B3FBF1F3B2FBF3F3184600F03BF977
:1019DC000346002B01D001230EE07B680F2B0AD8A5
:1019EC00002279684FF0FF3000F003F9064A7B685B
:1019FC001360002300E0012318460837BD4680BD64
:101A0C0078000020840000208000002080B400AF0B
:101A1C00054B1B781A46054B1B681344034A13608D
:101A2C0000BFBD4680BC70478400002040010020F0
:101A3C0080B400AF024B1B681846BD4680BC704793
:101A4C004001002080B485B000AF78607B6803F063
:101A5C000703FB600C4BDB68BB60BA684FF6FF03F7
:101A6C001340BB60FB681A02BB68134343F0BF63AF
:101A7C0043F40033BB60044ABB68D36000BF143727
:101A8C00BD4680BC704700BF00ED00E080B400AFE5
:101A9C00044BDB681B0A03F007031846BD4680BCE9
:101AAC00704700BF00ED00E080B483B000AF034688
:101ABC00FB7197F90730002B0BDBFB7903F01F024E
:101ACC00064997F907305B09012000FA02F241F848
:101ADC00232000BF0C37BD4680BC704700E100E0FE
:101AEC0080B483B000AF03463960FB7197F90730BF
:101AFC00002B0ADB3B68DAB20C4997F9073012016C
:101B0C00D2B20B4483F800230AE03B68DAB20849EE
:101B1C00FB7903F00F03043B1201D2B20B441A768B
:101B2C0000BF0C37BD4680BC704700BF00E100E031
:101B3C0000ED00E080B489B000AFF860B9607A6065
:101B4C00FB6803F00703FB61FB69C3F10703042B7C
:101B5C0028BF0423BB61FB690433062B02D9FB6944
:101B6C00033B00E000237B614FF0FF32BB6902FABC
:101B7C0003F3DA43BB681A407B699A404FF0FF319C
:101B8C007B6901FA03F3D9437B680B401343184676
:101B9C002437BD4680BC704780B582B000AF7860FA
:101BAC007B68013BB3F1807F01D301230FE00A4A2C
:101BBC007B68013B53600F214FF0FF30FFF790FF24
:101BCC00054B00229A60044B07221A60002318462A
:101BDC000837BD4680BD00BF10E000E080B582B084
:101BEC0000AF78607868FFF72DFF00BF0837BD465F
:101BFC0080BD80B586B000AF0346B9607A60FB73D8
:101C0C0000237B61FFF742FF78617A68B9687869D5
:101C1C00FFF790FF024697F90F3011461846FFF771
:101C2C005FFF00BF1837BD4680BD80B582B000AFE6
:101C3C000346FB7197F907301846FFF735FF00BFD5
:101C4C000837BD4680BD80B582B000AF786078683B
:101C5C00FFF7A2FF034618460837BD4680BD0000BB
:101C6C0080B48BB000AF7860396000237B620023B6
:101C7C003B6248E101227B6A02FA03F3FB613B6899
:101C8C001B68FA691340BB61BA69FB699A4240F060
:101C9C0037813B685B68A34A93425ED0A14A93426A
:101CAC0075D8A14A934258D09F4A93426FD89F4A05
:101CBC00934252D09D4A934269D89D4A93424CD04C
:101CCC009B4A934263D89B4A934246D0994A93428B
:101CDC005DD8122B2AD8122B59D801A252F823F016
:101CEC00671D0008411D0008531D0008951D0008C4
:101CFC009B1D00089B1D00089B1D00089B1D0008D8
:101D0C009B1D00089B1D00089B1D00089B1D0008C7
:101D1C009B1D00089B1D00089B1D00089B1D0008B7
:101D2C009B1D0008491D00085D1D0008824A934256
:101D3C0013D02CE03B68DB683B6229E03B68DB6836
:101D4C0004333B6224E03B68DB6808333B621FE0F2
:101D5C003B68DB680C333B621AE03B689B68002BEA
:101D6C0002D104233B6213E03B689B68012B05D135
:101D7C0008233B627B68FA691A6109E008233B621D
:101D8C007B68FA695A6103E000233B6200E000BF04
:101D9C00BB69FF2B01D87B6801E07B6804337B6156
:101DAC00BB69FF2B02D87B6A9B0002E07B6A083B75
:101DBC009B003B617B691A680F213B6901FA03F3B5
:101DCC00DB431A40396A3B6901FA03F31A437B6916
:101DDC001A603B685B6803F08053002B00F0908026
:101DEC00564B9B69554A43F001039361534B9B69D6
:101DFC0003F00103BB60BB68514A7B6A9B0802334A
:101E0C0052F82330FB607B6A03F003039B000F2224
:101E1C0002FA03F3DB43FA681340FB607B68494A20
:101E2C0093420DD07B68484A934207D07B68474A5F
:101E3C00934201D1022304E0032302E0012300E0DA
:101E4C0000237A6A02F0030292009340FA6813436B
:101E5C00FB603B497B6A9B080233FA6841F82320FC
:101E6C003B685B6803F48013002B06D0384B9A68F0
:101E7C003749BB6913438B6006E0354B9A68BB69E5
:101E8C00DB43334913408B603B685B6803F40013FE
:101E9C00002B06D02E4BDA682D49BB691343CB605F
:101EAC0006E02B4BDA68BB69DB4329491340CB6056
:101EBC003B685B6803F40033002B06D0244B5A6854
:101ECC002349BB6913434B6006E0214B5A68BB693D
:101EDC00DB431F4913404B603B685B6803F4803362
:101EEC00002B06D01A4B1A681949BB6913430B60B7
:101EFC0006E0174B1A68BB69DB43154913400B60AE
:101F0C007B6A01337B623B681A687B6A22FA03F3B3
:101F1C00002B7FF4AFAE00BF00BF2C37BD4680BC9A
:101F2C00704700BF0000321000003110000022107A
:101F3C0000002110000012100000111000100240CF
:101F4C000000014000080140000C0140001001405D
:101F5C000004014080B485B000AF78600B467B80F4
:101F6C007B689A687B881340002B02D00123FB739B
:101F7C0001E00023FB73FB7B18461437BD4680BC85
:101F8C00704780B483B000AF78600B467B801346FB
:101F9C007B707B78002B03D07A887B681A6103E016
:101FAC007B881A047B681A6100BF0C37BD4680BC65
:101FBC00704780B485B000AF78600B467B807B683F
:101FCC00DB68FB607A88FB6813401A04FB68D94312
:101FDC007B880B401A437B681A6100BF1437BD46DF
:101FEC0080BC704780B586B000AF78607B68002BF2
:101FFC0001D101236CE27B681B6803F00103002B09
:10200C0000F08780924B5B6803F00C03042B0CD020
:10201C008F4B5B6803F00C03082B12D18C4B5B6865
:10202C0003F48033B3F5803F0BD1894B1B6803F469
:10203C000033002B6CD07B685B68002B68D10123CC
:10204C0046E27B685B68B3F5803F06D1804B1B682A
:10205C007F4A43F4803313602EE07B685B68002B6F
:10206C000CD17B4B1B687A4A23F480331360784B7A
:10207C001B68774A23F4802313601DE07B685B6840
:10208C00B3F5A02F0CD1724B1B68714A43F480231B
:10209C0013606F4B1B686E4A43F4803313600BE084
:1020AC006B4B1B686A4A23F480331360684B1B68C4
:1020BC00674A23F4802313607B685B68002B13D082
:1020CC00FFF7B6FC386108E0FFF7B2FC02463B694B
:1020DC00D31A642B01D90323FAE15D4B1B6803F47B
:1020EC000033002BF0D014E0FFF7A2FC386108E0BD
:1020FC00FFF79EFC02463B69D31A642B01D90323DC
:10210C00E6E1534B1B6803F40033002BF0D100E0E5
:10211C0000BF7B681B6803F00203002B63D04C4BA1
:10212C005B6803F00C03002B0BD0494B5B6803F08E
:10213C000C03082B1CD1464B5B6803F48033002B3B
:10214C0016D1434B1B6803F00203002B05D07B68B0
:10215C001B69012B01D00123BAE13D4B1B6823F015
:10216C00F8027B685B69DB00394913430B603AE08A
:10217C007B681B69002B20D0364B01221A60FFF7BD
:10218C0057FC386108E0FFF753FC02463B69D31A51
:10219C00022B01D903239BE12D4B1B6803F0020397
:1021AC00002BF0D02A4B1B6823F0F8027B685B698C
:1021BC00DB00274913430B6015E0264B00221A6005
:1021CC00FFF736FC386108E0FFF732FC02463B694A
:1021DC00D31A022B01D903237AE11D4B1B6803F0A0
:1021EC000203002BF0D17B681B6803F00803002B63
:1021FC003AD07B689B69002B19D0174B01221A60CF
:10220C00FFF716FC386108E0FFF712FC02463B6949
:10221C00D31A022B01D903235AE10D4B5B6A03F04D
:10222C000203002BF0D0012000F09AFA1CE00A4BBC
:10223C0000221A60FFF7FCFB38610FE0FFF7F8FB98
:10224C0002463B69D31A022B08D9032340E100BF95
:10225C000010024000004242800442429E4B5B6AE6
:10226C0003F00203002BE9D17B681B6803F0040325
:10227C00002B00F0A6800023FB75974BDB6903F065
:10228C008053002B0DD1944BDB69934A43F0805360
:10229C00D361914BDB6903F08053BB60BB680123B6
:1022AC00FB758E4B1B6803F48073002B18D18B4B82
:1022BC001B688A4A43F480731360FFF7B9FB3861DB
:1022CC0008E0FFF7B5FB02463B69D31A642B01D932
:1022DC000323FDE0814B1B6803F48073002BF0D0CB
:1022EC007B68DB68012B06D17B4B1B6A7A4A43F077
:1022FC00010313622DE07B68DB68002B0CD1764B5D
:10230C001B6A754A23F001031362734B1B6A724AF2
:10231C0023F0040313621CE07B68DB68052B0CD1F3
:10232C006D4B1B6A6C4A43F0040313626A4B1B6AC5
:10233C00694A43F0010313620BE0674B1B6A664A60
:10234C0023F001031362644B1B6A634A23F00403FA
:10235C0013627B68DB68002B15D0FFF769FB3861D3
:10236C000AE0FFF765FB02463B69D31A41F288325B
:10237C00934201D90323ABE0574B1B6A03F00203D2
:10238C00002BEED014E0FFF753FB38610AE0FFF7A7
:10239C004FFB02463B69D31A41F28832934201D972
:1023AC00032395E04C4B1B6A03F00203002BEED188
:1023BC00FB7D012B05D1484BDB69474A23F0805349
:1023CC00D3617B68DB69002B00F08180424B5B683A
:1023DC0003F00C03082B61D07B68DB69022B46D120
:1023EC003F4B00221A60FFF723FB386108E0FFF730
:1023FC001FFB02463B69D31A022B01D9032367E06A
:10240C00354B1B6803F00073002BF0D17B681B6A03
:10241C00B3F5803F08D1304B5B6823F400327B6806
:10242C009B682D4913434B602B4B5B6823F4741250
:10243C007B68196A7B685B6A0B43274913434B60C3
:10244C00274B01221A60FFF7F3FA386108E0FFF717
:10245C00EFFA02463B69D31A022B01D9032337E06A
:10246C001D4B1B6803F00073002BF0D02FE01C4BAE
:10247C0000221A60FFF7DCFA386108E0FFF7D8FA9F
:10248C0002463B69D31A022B01D9032320E0124BDD
:10249C001B6803F00073002BF0D118E07B68DB693C
:1024AC00012B01D1012313E00B4B5B68FB60FB6834
:1024BC0003F480327B681B6A9A4206D1FB6803F4F2
:1024CC0070127B685B6A9A4201D0012300E0002302
:1024DC0018461837BD4680BD001002400070004001
:1024EC006000424280B584B000AF786039607B6890
:1024FC00002B01D10123D0E06A4B1B6803F00703CA
:10250C003A689A4210D9674B1B6823F00702654959
:10251C003B6813430B60634B1B6803F007033A687B
:10252C009A4201D00123B8E07B681B6803F00203D8
:10253C00002B20D07B681B6803F00403002B05D014
:10254C00594B5B68584A43F4E06353607B681B68E3
:10255C0003F00803002B05D0534B5B68524A43F43D
:10256C0060535360504B5B6823F0F0027B689B68B0
:10257C004D4913434B607B681B6803F00103002B30
:10258C0040D07B685B68012B07D1474B1B6803F479
:10259C000033002B15D101237FE07B685B68022B95
:1025AC0007D1414B1B6803F00073002B09D10123A9
:1025BC0073E03D4B1B6803F00203002B01D1012398
:1025CC006BE0394B5B6823F003027B685B68364930
:1025DC0013434B60FFF72CFAF8600AE0FFF728FA78
:1025EC000246FB68D31A41F28832934201D9032385
:1025FC0053E02D4B5B6803F00C027B685B689B001F
:10260C009A42EBD1274B1B6803F007033A689A42B6
:10261C0010D2244B1B6823F0070222493B6813435A
:10262C000B60204B1B6803F007033A689A4201D0F9
:10263C00012332E07B681B6803F00403002B08D0F5
:10264C00194B5B6823F4E0627B68DB681649134323
:10265C004B607B681B6803F00803002B09D0124BFE
:10266C005B6823F460527B681B69DB000E491343E3
:10267C004B6000F021F802460B4B5B681B0903F022
:10268C000F030A49CB5C22FA03F3094A1360094B86
:10269C001B681846FFF78AF9002318461037BD4609
:1026AC0080BD00BF0020024000100240E82F00084F
:1026BC00780000208000002080B487B000AF002399
:1026CC00FB600023BB6000237B6100237B60002345
:1026DC003B611E4B5B68FB60FB6803F00C03042B37
:1026EC0002D0082B03D027E0194B3B6127E0FB6895
:1026FC009B0C03F00F03174AD35C7B60FB6803F45D
:10270C008033002B10D0114B5B685B0C03F0010382
:10271C00114AD35CBB607B680D4A02FB03F2BB68B9
:10272C00B2FBF3F37B6104E07B680C4A02FB03F31E
:10273C007B617B693B6102E0054B3B6100BF3B6900
:10274C0018461C37BD4680BC704700BF00100240C5
:10275C0000127A00F82F00080830000800093D002C
:10276C0080B485B000AF78600A4B1B680A4AA2FBA4
:10277C0003235B0A7A6802FB03F3FB6000BFFB6870
:10278C005A1EFA60002BF9D100BF00BF1437BD46AA
:10279C0080BC704778000020D34D621080B582B0A9
:1027AC0000AF78607B68002B01D1012341E07B688E
:1027BC0093F83D30DBB2002B06D17B68002283F806
:1027CC003C207868FEF740FF7B68022283F83D20AE
:1027DC007B681A687B6804331946104600F06EFA61
:1027EC007B68012283F846207B68012283F83E2017
:1027FC007B68012283F83F207B68012283F840200C
:10280C007B68012283F841207B68012283F84220F7
:10281C007B68012283F843207B68012283F84420E3
:10282C007B68012283F845207B68012283F83D20D8
:10283C00002318460837BD4680BD000080B485B023
:10284C0000AF78607B6893F83D30DBB2012B01D090
:10285C00012335E07B68022283F83D207B681B68EE
:10286C00DA687B681B6842F00102DA607B681B68DF
:10287C00164A934209D07B681B68B3F1804F04D091
:10288C007B681B68124A934211D17B681B689B685A
:10289C0003F00703FB60FB68062B10D07B681B68FA
:1028AC001A687B681B6842F001021A6007E07B68BB
:1028BC001B681A687B681B6842F001021A600023CF
:1028CC0018461437BD4680BC704700BF002C014031
:1028DC000004004080B582B000AF78607B681B6854
:1028EC001B6903F00203022B22D17B681B68DB6897
:1028FC0003F00203022B1BD17B681B686FF00202F2
:10290C001A617B6801221A777B681B689B6903F04C
:10291C000303002B03D0786800F0B4F905E0786865
:10292C0000F0A7F9786800F0B6F97B6800221A77F6
:10293C007B681B681B6903F00403042B22D17B68A2
:10294C001B68DB6803F00403042B1BD17B681B683A
:10295C006FF004021A617B6802221A777B681B688D
:10296C009B6903F44073002B03D0786800F08AF95C
:10297C0005E0786800F07DF9786800F08CF97B68E8
:10298C0000221A777B681B681B6903F00803082B6D
:10299C0022D17B681B68DB6803F00803082B1BD172
:1029AC007B681B686FF008021A617B6804221A7737
:1029BC007B681B68DB6903F00303002B03D078688A
:1029CC0000F060F905E0786800F053F9786800F0E1
:1029DC0062F97B6800221A777B681B681B6903F01D
:1029EC001003102B22D17B681B68DB6803F01003EB
:1029FC00102B1BD17B681B686FF010021A617B686F
:102A0C0008221A777B681B68DB6903F44073002B80
:102A1C0003D0786800F036F905E0786800F029F901
:102A2C00786800F038F97B6800221A777B681B689D
:102A3C001B6903F00103012B0ED17B681B68DB685B
:102A4C0003F00103012B07D17B681B686FF00102B7
:102A5C001A617868FEF768FA7B681B681B6903F0DB
:102A6C008003802B0ED17B681B68DB6803F080032E
:102A7C00802B07D17B681B686FF080021A61786825
:102A8C0000F06BFA7B681B681B6903F04003402B5A
:102A9C000ED17B681B68DB6803F04003402B07D129
:102AAC007B681B686FF040021A61786800F0FCF8D4
:102ABC007B681B681B6903F02003202B0ED17B68FD
:102ACC001B68DB6803F02003202B07D17B681B6895
:102ADC006FF020021A61786800F036FA00BF0837F0
:102AEC00BD4680BD80B584B000AF786039600023EE
:102AFC00FB737B6893F83C30012B01D10223B4E0CB
:102B0C007B68012283F83C207B68022283F83D20FD
:102B1C007B681B689B68BB60BB6823F07703BB605A
:102B2C00BB6823F47F43BB607B681B68BA689A6000
:102B3C003B681B68B3F5005F3ED0B3F5005F00F255
:102B4C008780B3F5805F00F08680B3F5805F7FD817
:102B5C00702B1AD0702B7BD8602B50D0602B77D871
:102B6C00502B3CD0502B73D8402B58D0402B6FD8C7
:102B7C00302B64D0302B6BD8202B60D0202B67D817
:102B8C00002B5CD0102B5AD062E07B6818683B6835
:102B9C0099683B685A683B68DB6800F05EF97B68B3
:102BAC001B689B68BB60BB6843F07703BB607B68AA
:102BBC001B68BA689A604FE07B6818683B68996834
:102BCC003B685A683B68DB6800F047F97B681B6818
:102BDC009A687B681B6842F480429A603CE07B6890
:102BEC0018683B6859683B68DB681A4600F0BEF809
:102BFC007B681B685021184600F015F92CE07B68A7
:102C0C0018683B6859683B68DB681A4600F0DCF8CA
:102C1C007B681B686021184600F005F91CE07B6896
:102C2C0018683B6859683B68DB681A4600F09EF8E8
:102C3C007B681B684021184600F0F5F80CE07B68B7
:102C4C001A683B681B681946104600F0ECF803E064
:102C5C000123FB7300E000BF7B68012283F83D2059
:102C6C007B68002283F83C20FB7B18461037BD465E
:102C7C0080BD80B483B000AF786000BF0C37BD4618
:102C8C0080BC704780B483B000AF786000BF0C3755
:102C9C00BD4680BC704780B483B000AF786000BF85
:102CAC000C37BD4680BC704780B483B000AF7860F1
:102CBC0000BF0C37BD4680BC7047000080B485B0A7
:102CCC0000AF786039607B681B68FB607B68254AC5
:102CDC00934207D07B68B3F1804F03D07B68224AC4
:102CEC00934208D1FB6823F07003FB603B685B6880
:102CFC00FA681343FB607B681A4A934207D07B68DF
:102D0C00B3F1804F03D07B68174A934208D1FB681C
:102D1C0023F44073FB603B68DB68FA681343FB6089
:102D2C00FB6823F080023B685B691343FB607B68A4
:102D3C00FA681A603B689A687B68DA623B681A68C2
:102D4C007B689A627B68074A934203D13B681A6995
:102D5C007B681A637B6801225A6100BF1437BD4639
:102D6C0080BC7047002C01400004004080B487B048
:102D7C0000AFF860B9607A60FB681B6A7B61FB6826
:102D8C001B6A23F00102FB681A62FB689B693B61BA
:102D9C003B6923F0F0033B617B681B013A691343E9
:102DAC003B617B6923F00A037B617A69BB6813433F
:102DBC007B61FB683A699A61FB687A691A6200BFA9
:102DCC001C37BD4680BC704780B487B000AFF8603C
:102DDC00B9607A60FB681B6A7B61FB681B6A23F035
:102DEC001002FB681A62FB689B693B613B6923F428
:102DFC0070433B617B681B033A6913433B617B69FE
:102E0C0023F0A0037B61BB681B017A6913437B61D0
:102E1C00FB683A699A61FB687A691A6200BF1C37D1
:102E2C00BD4680BC704780B485B000AF7860396017
:102E3C007B689B68FB60FB6823F07003FB603A685F
:102E4C00FB68134343F00703FB607B68FA689A60E6
:102E5C0000BF1437BD4680BC704780B487B000AF4C
:102E6C00F860B9607A603B60FB689B687B617B694A
:102E7C0023F47F437B613B681A027B681A43BB686F
:102E8C0013437A6913437B61FB687A699A6000BFCC
:102E9C001C37BD4680BC704780B485B000AF7860ED
:102EAC0039607B6893F83C30012B01D1022341E05F
:102EBC007B68012283F83C207B68022283F83D204A
:102ECC007B681B685B68FB607B681B689B68BB60EE
:102EDC00FB6823F07003FB603B681B68FA681343C4
:102EEC00FB607B681B68FA685A607B681B68144A35
:102EFC00934209D07B681B68B3F1804F04D07B6888
:102F0C001B68104A93420CD1BB6823F08003BB6052
:102F1C003B685B68BA681343BB607B681B68BA6824
:102F2C009A607B68012283F83D207B68002283F83D
:102F3C003C20002318461437BD4680BC704700BFA8
:102F4C00002C01400004004080B483B000AF7860D6
:102F5C0000BF0C37BD4680BC704780B483B000AF57
:102F6C00786000BF0C37BD4680BC704770B500263A
:102F7C000C4D0D4C641BA410A64209D100F022F894
:102F8C0000260A4D0A4C641BA410A64205D170BD44
:102F9C0055F8043B98470136EEE755F8043B984743
:102FAC000136F2E70C3000080C3000080C30000839
:102FBC001030000803460244934200D1704703F8D6
:102FCC00011BF9E7F8B500BFF8BC08BC9E4670477A
:0C2FDC00F8B500BFF8BC08BC9E4670476A
:102FE80000000000000000000102030406070809B1
:102FF80002030405060708090A0B0C0D0E0F101032
:0430080001020000C1
:04300C003101000886
:043010000D010008A6
:10301400050000000300000088130000B80B000046
:10302400D0070000000000000500000000000000C0
:103034000300000001000000010000000100000086
:10304400002000000040000000800000010000009B
:103054000100000001000000010000000100000068
:103064000100000001000000010000000100000058
:103074000100000001000000010000002C0100001C
:103084002C0100002C0100000024F4000A000000C0
:08309400100000000100000023
:040000050800194195
:00000001FF
